:100000000C945F000C9439040C9466040C948700E3
:100010000C9487000C9487000C9487000C94DD03EB
:100020000C9487000C9487000C9487000C94870034
:100030000C9487000C9487000C9487000C94870024
:100040000C9493040C9487000C94B4010C94EF016D
:100050000C9487000C9487000C9487000C94870004
:100060000C9487000C948700020000000800020135
:10007000000003040700000000000000000102046B
:10008000081020408001020408102001020408101A
:100090002004040404040404040202020202020311
:1000A000030303030300000000250028002B0000C9
:1000B000000000240027002A00001F02A9021124CA
:1000C0001FBECFEFD8E0DEBFCDBF11E0A0E0B1E0B2
:1000D000E8EDFCE002C005900D92A432B107D9F71B
:1000E00021E0A4E2B1E001C01D92AB3DB207E1F70F
:1000F00010E0CEEBD0E004C02297FE010E9466061D
:10010000CA3BD107C9F70E94B5020C946A060C9449
:100110000000FC01818D228D90E0805C9F4F821B4E
:1001200091098F7399270895FC01918D828D9817FD
:1001300031F0828DE80FF11D858D90E008958FEFED
:100140009FEF0895FC01918D828D981761F0828D4B
:10015000DF01A80FB11D5D968C91928D9F5F9F73FB
:10016000928F90E008958FEF9FEF089585E192E0E0
:10017000892B49F080E090E0892B29F00E9415023C
:1001800081110E9400000895FC01848DDF01A80FF9
:10019000B11DA35ABF4F2C91848D90E001968F73AF
:1001A0009078848FA689B7892C93A089B1898C9186
:1001B00080648C93938D848D981306C00288F38994
:1001C000E02D80818F7D80830895CF93DF93EC01B4
:1001D000888D81110BC01BC00FB607FC09C0808140
:1001E00085FF06C00EC0CE010E94C400EA89FB89CB
:1001F000808185FDF1CFA889B9898C9186FFECCFEC
:1002000006C0A889B9898C9185FFF2CFECCFDF9128
:10021000CF9108950F931F93CF93DF93EC01162F87
:100220009B8D8C8D981324C0E889F989808185FD88
:1002300026C01EC00FB607FC08C0E889F989808176
:1002400085FF03C0CE010E94C4009C8D091791F365
:100250008B8DFE01E80FF11DE35AFF4F10830B8FCA
:10026000EA89FB8980818062808381E0888F0FC06A
:100270008B8D90E001968F739078082FE6CFEE89F2
:10028000FF896083E889F98980818064808381E0C7
:1002900090E0DF91CF911F910F910895CF92DF925F
:1002A000EF92FF921F93CF93DF93EC016A017B01E2
:1002B000122FE889F98982E08083411581EE580781
:1002C00061057105B1F060E079E08DE390E0A70190
:1002D00096010E944206BA01A901415051096109E3
:1002E00071097695679557954795411580E15807AF
:1002F000A8F0E889F989108260E874E88EE190E05E
:10030000A70196010E944206BA01A9014150510974
:10031000610971097695679557954795EC85FD8537
:100320005083EE85FF854083188EEC89FD8910830C
:10033000EA89FB89808180618083EA89FB898081E9
:1003400088608083EA89FB89808180688083EA896C
:10035000FB8980818F7D8083DF91CF911F91FF90FA
:10036000EF90DF90CF9008951F920F920FB60F92EB
:1003700011242F938F939F93AF93BF93EF93FF938A
:10038000E0913401F0913501808182FD17C0E09148
:100390003A01F0913B01208180913D018F5F8F7385
:1003A00090913E01891779F0EDE3F1E0A081B0E092
:1003B000AC5DBE4F5D962C93808305C0E0913A0101
:1003C000F0913B018081FF91EF91BF91AF919F919F
:1003D0008F912F910F900FBE0F901F9018951F9225
:1003E0000F920FB60F9211242F933F934F935F9369
:1003F0006F937F938F939F93AF93BF93EF93FF93ED
:1004000084E291E00E94C400FF91EF91BF91AF910F
:100410009F918F917F916F915F914F913F912F911C
:100420000F900FBE0F901F90189584E291E00E94EC
:10043000890021E0892B09F420E0822F0895109291
:1004400027011092260188EE93E0A0E0B0E08093AF
:10045000280190932901A0932A01B0932B0185E0F4
:1004600091E0909325018093240185EC90E0909396
:1004700031018093300184EC90E0909333018093BC
:10048000320180EC90E0909335018093340181EC4F
:1004900090E0909337018093360182EC90E0909346
:1004A00039018093380186EC90E090933B01809372
:1004B0003A0110923D0110923E0110923F011092BC
:1004C000400108950895AF92BF92CF92DF92EF92CC
:1004D000FF920F931F93CF93DF935C017B01C0E0EA
:1004E000D0E000E010E0F501EC0FFD1F4AE050E025
:1004F0006281C7010E949F036C016EE2C7010E94E6
:100500000D038C0D9D1D080F191F2196C330D105B9
:1005100051F74AE050E0F5016581C7010E949F0351
:10052000800F911FDF91CF911F910F91FF90EF905E
:10053000DF90CF90BF90AF9008950F93FC0185E1BD
:1005400091E09183808362834383248305830F91A9
:1005500008950F9300E020E040E060E081EC91E03E
:100560000E949D020F91089508950E942F050E94F8
:10057000B4020E9408060E942D0686EB90E0892BAB
:1005800029F00E94B6000E942D06FBCF0E942D0686
:10059000FDCFCF92DF92EF92FF920F931F93CF93F5
:1005A000DF936C0141155105B1F0062F172FEA01B9
:1005B000E12CF12CD8016D918D01D601ED91FC91CA
:1005C0000190F081E02DC6010995E80EF91E2197F2
:1005D000209781F702C0E12CF12CC701DF91CF9168
:1005E0001F910F91FF90EF90DF90CF9008956115CC
:1005F000710581F0FB0101900020E9F73197AF010F
:10060000461B570BDC01ED91FC910280F381E02D3C
:100610000995089580E090E00895DC01ED91FC914A
:100620000190F081E02D099508956F927F928F924D
:100630009F92AF92BF92CF92DF92EF92FF920F9371
:100640001F93CF93DF93CDB7DEB7A1970FB6F89482
:10065000DEBF0FBECDBF6C01742E352F862F972FB6
:10066000622E19A221E0261520F00F2EFAE06F2E3F
:10067000F02D7E01A1E2EA0EF11C862C912CA12C1A
:10068000B12C672D732FA50194010E944206E22F21
:10069000732F022F132F242F352FF72D6E9EF01955
:1006A0001124B1E0EB1AF108FA3010F4F05D01C04A
:1006B000F95CD701FC93012B022B032B29F07E2E32
:1006C000372F842F952FDDCFE114F10491F0F7013E
:1006D00001900020E9F73197AF014E195F09D6016B
:1006E000ED91FC910280F381E02DB701C6010995DF
:1006F00002C080E090E0A1960FB6F894DEBF0FBE76
:10070000CDBFDF91CF911F910F91FF90EF90DF90C0
:10071000CF90BF90AF909F908F907F906F900895F3
:100720002115310549F4DC01ED91FC910190F08136
:10073000E02D642F099508950E94150308959A01EC
:10074000462F50E060E070E00E94900308958130F1
:1007500039F018F0823051F0089510926E0008952B
:10076000EFE6F0E080818D7F80830895E0E7F0E0A0
:1007700080818D7F808381E08093B000E1EBF0E0A9
:100780008081887F846080831092B3000895CF9326
:10079000C82F809100018C1307C0E8E6F0E0849137
:1007A0009FEF9093000101C08FEF0E94A70360E0CC
:1007B0008C2F0E94D705CF9108951F920F920FB6EC
:1007C0000F9211242F933F934F935F936F937F93D7
:1007D0008F939F93AF93BF93EF93FF938091CA0141
:1007E0009091CB01A091CC01B091CD01892B8A2BA6
:1007F0008B2B51F18091C701E091C801F091C901A3
:100800009081892780838091CA019091CB01A0912A
:10081000CC01B091CD01181619061A061B06C4F4B6
:100820008091CA019091CB01A091CC01B091CD01F2
:100830000197A109B1098093CA019093CB01A093BC
:10084000CC01B093CD0104C0809100010E94C70388
:10085000FF91EF91BF91AF919F918F917F916F9198
:100860005F914F913F912F910F900FBE0F901F906E
:1008700018951F920F920FB60F9211242F933F934A
:100880004F935F936F937F938F939F93AF93BF9398
:10089000EF93FF938091CE019091CF01892B29F0A6
:1008A000E091CE01F091CF010995FF91EF91BF91B9
:1008B000AF919F918F917F916F915F914F913F91F8
:1008C0002F910F900FBE0F901F9018951F920F92AF
:1008D0000FB60F9211242F933F934F935F936F9313
:1008E0007F938F939F93AF93BF93EF93FF938091E9
:1008F000D0019091D101892B29F0E091D001F091A4
:10090000D1010995FF91EF91BF91AF919F918F9187
:100910007F916F915F914F913F912F910F900FBEFB
:100920000F901F9018951F920F920FB60F921124DF
:100930002F933F938F939F93AF93BF938091D30156
:100940009091D401A091D501B091D6013091D201FE
:1009500023E0230F2D3720F40196A11DB11D05C002
:1009600026E8230F0296A11DB11D2093D20180938A
:10097000D3019093D401A093D501B093D601809177
:10098000D7019091D801A091D901B091DA010196D7
:10099000A11DB11D8093D7019093D801A093D901D7
:1009A000B093DA01BF91AF919F918F913F912F91B9
:1009B0000F900FBE0F901F9018953FB7F89480913D
:1009C000D7019091D801A091D901B091DA0126B553
:1009D000A89B05C02F3F19F00196A11DB11D3FBF77
:1009E000BA2FA92F982F8827820F911DA11DB11D05
:1009F000BC01CD01660F771F881F991F660F771FF7
:100A0000881F991F0895CF92DF92EF92FF92CF93A4
:100A1000DF936B017C010E94DD04EB01C114D10462
:100A2000E104F104A9F00E9462020E94DD046C1B43
:100A30007D0B683E734038F081E0C81AD108E108A8
:100A4000F108C851DC4FC114D104E104F10459F795
:100A5000DF91CF91FF90EF90DF90CF900895789441
:100A600084B5826084BD84B5816084BD85B58260B3
:100A700085BD85B5816085BDEEE6F0E08081816051
:100A80008083E1E8F0E01082808182608083808151
:100A900081608083E0E8F0E0808181608083E1EB29
:100AA000F0E0808184608083E0EBF0E08081816011
:100AB0008083EAE7F0E080818460808380818260C7
:100AC00080838081816080838081806880831092B0
:100AD000C1000895833069F028F48130B1F082308C
:100AE000C1F008958730C9F08830E9F0843001F50D
:100AF00006C0E0E8F0E080818F7780830895E0E829
:100B0000F0E080818F7D8083089584B58F7784BDE8
:100B1000089584B58F7D84BD0895E0EBF0E0808179
:100B20008F7780830895E0EBF0E080818F7D808374
:100B30000895CF93DF9390E0FC01E358FF4F249199
:100B4000FC01EF56FF4F8491882371F190E0880FEC
:100B5000991FFC01E155FF4FA591B4918B559F4F13
:100B6000FC01C591D49161110BC08FB7F8949C9191
:100B7000209592239C93E8812E2328838FBF14C055
:100B8000623061F48FB7F8943C91922F9095932343
:100B90009C93E8812E2B28838FBF06C08FB7F894D3
:100BA000EC912E2B2C938FBFDF91CF9108951F9343
:100BB000CF93DF93C62F282F30E0F901E759FF4F7D
:100BC0008491F901E358FF4F1491F901EF56FF4F5B
:100BD000D491DD23C9F081110E946A052D2F30E0E8
:100BE000F901EE0FFF1FEB55FF4FA591B4918FB7A1
:100BF000F894C11105C0EC9110951E231C9303C0FD
:100C0000EC911E2B1C938FBFDF91CF911F91089504
:100C100061E08DE00E94990526E040E855E260E041
:100C200070E084E291E00E944E0167E171E084E2AD
:100C300091E00E94F702569A80E88093B300E0EBBF
:100C4000F0E0808180688083808183608083E1EB35
:100C5000F0E0808182608083089560E08DE00E94F2
:100C6000D70564E670E080E090E00E94030561E053
:100C70008DE00E94D70564E670E080E090E00E947D
:100C800003050895A1E21A2EAA1BBB1BFD010DC08E
:100C9000AA1FBB1FEE1FFF1FA217B307E407F5072C
:100CA00020F0A21BB30BE40BF50B661F771F881F08
:100CB000991F1A9469F760957095809590959B019E
:100CC000AC01BD01CF010895EE0FFF1F0590F49117
:080CD000E02D0994F894FFCF18
:100CD800FF000000000A01C9028900A2009400E593
:100CE8000000000000630248656C6C6F20576F724B
:040CF8006C64210007
:00000001FF
